{
  "_format": "hh-sol-artifact-1",
  "contractName": "PersonagemMarketplace",
  "sourceName": "contracts/PersonagemMarketplace.sol",
  "abi": [
    {
      "inputs": [],
      "stateMutability": "nonpayable",
      "type": "constructor"
    },
    {
      "inputs": [
        {
          "internalType": "address",
          "name": "sender",
          "type": "address"
        },
        {
          "internalType": "uint256",
          "name": "tokenId",
          "type": "uint256"
        },
        {
          "internalType": "address",
          "name": "owner",
          "type": "address"
        }
      ],
      "name": "ERC721IncorrectOwner",
      "type": "error"
    },
    {
      "inputs": [
        {
          "internalType": "address",
          "name": "operator",
          "type": "address"
        },
        {
          "internalType": "uint256",
          "name": "tokenId",
          "type": "uint256"
        }
      ],
      "name": "ERC721InsufficientApproval",
      "type": "error"
    },
    {
      "inputs": [
        {
          "internalType": "address",
          "name": "approver",
          "type": "address"
        }
      ],
      "name": "ERC721InvalidApprover",
      "type": "error"
    },
    {
      "inputs": [
        {
          "internalType": "address",
          "name": "operator",
          "type": "address"
        }
      ],
      "name": "ERC721InvalidOperator",
      "type": "error"
    },
    {
      "inputs": [
        {
          "internalType": "address",
          "name": "owner",
          "type": "address"
        }
      ],
      "name": "ERC721InvalidOwner",
      "type": "error"
    },
    {
      "inputs": [
        {
          "internalType": "address",
          "name": "receiver",
          "type": "address"
        }
      ],
      "name": "ERC721InvalidReceiver",
      "type": "error"
    },
    {
      "inputs": [
        {
          "internalType": "address",
          "name": "sender",
          "type": "address"
        }
      ],
      "name": "ERC721InvalidSender",
      "type": "error"
    },
    {
      "inputs": [
        {
          "internalType": "uint256",
          "name": "tokenId",
          "type": "uint256"
        }
      ],
      "name": "ERC721NonexistentToken",
      "type": "error"
    },
    {
      "inputs": [
        {
          "internalType": "address",
          "name": "owner",
          "type": "address"
        }
      ],
      "name": "OwnableInvalidOwner",
      "type": "error"
    },
    {
      "inputs": [
        {
          "internalType": "address",
          "name": "account",
          "type": "address"
        }
      ],
      "name": "OwnableUnauthorizedAccount",
      "type": "error"
    },
    {
      "anonymous": false,
      "inputs": [
        {
          "indexed": true,
          "internalType": "address",
          "name": "owner",
          "type": "address"
        },
        {
          "indexed": true,
          "internalType": "address",
          "name": "approved",
          "type": "address"
        },
        {
          "indexed": true,
          "internalType": "uint256",
          "name": "tokenId",
          "type": "uint256"
        }
      ],
      "name": "Approval",
      "type": "event"
    },
    {
      "anonymous": false,
      "inputs": [
        {
          "indexed": true,
          "internalType": "address",
          "name": "owner",
          "type": "address"
        },
        {
          "indexed": true,
          "internalType": "address",
          "name": "operator",
          "type": "address"
        },
        {
          "indexed": false,
          "internalType": "bool",
          "name": "approved",
          "type": "bool"
        }
      ],
      "name": "ApprovalForAll",
      "type": "event"
    },
    {
      "anonymous": false,
      "inputs": [
        {
          "indexed": false,
          "internalType": "uint256",
          "name": "_fromTokenId",
          "type": "uint256"
        },
        {
          "indexed": false,
          "internalType": "uint256",
          "name": "_toTokenId",
          "type": "uint256"
        }
      ],
      "name": "BatchMetadataUpdate",
      "type": "event"
    },
    {
      "anonymous": false,
      "inputs": [
        {
          "indexed": false,
          "internalType": "uint256",
          "name": "_tokenId",
          "type": "uint256"
        }
      ],
      "name": "MetadataUpdate",
      "type": "event"
    },
    {
      "anonymous": false,
      "inputs": [
        {
          "indexed": true,
          "internalType": "address",
          "name": "previousOwner",
          "type": "address"
        },
        {
          "indexed": true,
          "internalType": "address",
          "name": "newOwner",
          "type": "address"
        }
      ],
      "name": "OwnershipTransferred",
      "type": "event"
    },
    {
      "anonymous": false,
      "inputs": [
        {
          "indexed": true,
          "internalType": "uint256",
          "name": "tokenId",
          "type": "uint256"
        },
        {
          "indexed": false,
          "internalType": "uint256",
          "name": "preco",
          "type": "uint256"
        }
      ],
      "name": "PersonagemColocadoAVenda",
      "type": "event"
    },
    {
      "anonymous": false,
      "inputs": [
        {
          "indexed": true,
          "internalType": "uint256",
          "name": "tokenId",
          "type": "uint256"
        },
        {
          "indexed": false,
          "internalType": "address",
          "name": "novoDono",
          "type": "address"
        }
      ],
      "name": "PersonagemComprado",
      "type": "event"
    },
    {
      "anonymous": false,
      "inputs": [
        {
          "indexed": true,
          "internalType": "uint256",
          "name": "tokenId",
          "type": "uint256"
        },
        {
          "indexed": false,
          "internalType": "address",
          "name": "owner",
          "type": "address"
        },
        {
          "indexed": false,
          "internalType": "string",
          "name": "tokenURI",
          "type": "string"
        }
      ],
      "name": "PersonagemMintado",
      "type": "event"
    },
    {
      "anonymous": false,
      "inputs": [
        {
          "indexed": false,
          "internalType": "address",
          "name": "de",
          "type": "address"
        },
        {
          "indexed": false,
          "internalType": "address",
          "name": "para",
          "type": "address"
        },
        {
          "indexed": false,
          "internalType": "uint256",
          "name": "tokenId",
          "type": "uint256"
        }
      ],
      "name": "PersonagemTransferido",
      "type": "event"
    },
    {
      "anonymous": false,
      "inputs": [
        {
          "indexed": true,
          "internalType": "uint256",
          "name": "tokenId",
          "type": "uint256"
        },
        {
          "indexed": false,
          "internalType": "uint256",
          "name": "novoPreco",
          "type": "uint256"
        }
      ],
      "name": "PrecoAlterado",
      "type": "event"
    },
    {
      "anonymous": false,
      "inputs": [
        {
          "indexed": true,
          "internalType": "address",
          "name": "from",
          "type": "address"
        },
        {
          "indexed": true,
          "internalType": "address",
          "name": "to",
          "type": "address"
        },
        {
          "indexed": true,
          "internalType": "uint256",
          "name": "tokenId",
          "type": "uint256"
        }
      ],
      "name": "Transfer",
      "type": "event"
    },
    {
      "inputs": [
        {
          "internalType": "uint256",
          "name": "tokenId",
          "type": "uint256"
        },
        {
          "internalType": "uint256",
          "name": "novoPreco",
          "type": "uint256"
        }
      ],
      "name": "alterarPrecoPersonagem",
      "outputs": [],
      "stateMutability": "nonpayable",
      "type": "function"
    },
    {
      "inputs": [
        {
          "internalType": "address",
          "name": "to",
          "type": "address"
        },
        {
          "internalType": "uint256",
          "name": "tokenId",
          "type": "uint256"
        }
      ],
      "name": "approve",
      "outputs": [],
      "stateMutability": "nonpayable",
      "type": "function"
    },
    {
      "inputs": [
        {
          "internalType": "address",
          "name": "owner",
          "type": "address"
        }
      ],
      "name": "balanceOf",
      "outputs": [
        {
          "internalType": "uint256",
          "name": "",
          "type": "uint256"
        }
      ],
      "stateMutability": "view",
      "type": "function"
    },
    {
      "inputs": [
        {
          "internalType": "uint256",
          "name": "tokenId",
          "type": "uint256"
        }
      ],
      "name": "comprarPersonagem",
      "outputs": [],
      "stateMutability": "payable",
      "type": "function"
    },
    {
      "inputs": [
        {
          "internalType": "uint256",
          "name": "",
          "type": "uint256"
        }
      ],
      "name": "estaAVenda",
      "outputs": [
        {
          "internalType": "bool",
          "name": "",
          "type": "bool"
        }
      ],
      "stateMutability": "view",
      "type": "function"
    },
    {
      "inputs": [
        {
          "internalType": "uint256",
          "name": "tokenId",
          "type": "uint256"
        }
      ],
      "name": "getApproved",
      "outputs": [
        {
          "internalType": "address",
          "name": "",
          "type": "address"
        }
      ],
      "stateMutability": "view",
      "type": "function"
    },
    {
      "inputs": [
        {
          "internalType": "address",
          "name": "owner",
          "type": "address"
        },
        {
          "internalType": "address",
          "name": "operator",
          "type": "address"
        }
      ],
      "name": "isApprovedForAll",
      "outputs": [
        {
          "internalType": "bool",
          "name": "",
          "type": "bool"
        }
      ],
      "stateMutability": "view",
      "type": "function"
    },
    {
      "inputs": [
        {
          "internalType": "string",
          "name": "tokenURI",
          "type": "string"
        },
        {
          "internalType": "string",
          "name": "classe",
          "type": "string"
        },
        {
          "internalType": "uint256",
          "name": "nivel",
          "type": "uint256"
        },
        {
          "internalType": "uint256",
          "name": "poder",
          "type": "uint256"
        }
      ],
      "name": "mintPersonagem",
      "outputs": [],
      "stateMutability": "nonpayable",
      "type": "function"
    },
    {
      "inputs": [],
      "name": "name",
      "outputs": [
        {
          "internalType": "string",
          "name": "",
          "type": "string"
        }
      ],
      "stateMutability": "view",
      "type": "function"
    },
    {
      "inputs": [],
      "name": "nextTokenId",
      "outputs": [
        {
          "internalType": "uint256",
          "name": "",
          "type": "uint256"
        }
      ],
      "stateMutability": "view",
      "type": "function"
    },
    {
      "inputs": [],
      "name": "owner",
      "outputs": [
        {
          "internalType": "address",
          "name": "",
          "type": "address"
        }
      ],
      "stateMutability": "view",
      "type": "function"
    },
    {
      "inputs": [
        {
          "internalType": "uint256",
          "name": "tokenId",
          "type": "uint256"
        }
      ],
      "name": "ownerOf",
      "outputs": [
        {
          "internalType": "address",
          "name": "",
          "type": "address"
        }
      ],
      "stateMutability": "view",
      "type": "function"
    },
    {
      "inputs": [
        {
          "internalType": "uint256",
          "name": "",
          "type": "uint256"
        }
      ],
      "name": "personagens",
      "outputs": [
        {
          "internalType": "string",
          "name": "classe",
          "type": "string"
        },
        {
          "internalType": "uint256",
          "name": "nivel",
          "type": "uint256"
        },
        {
          "internalType": "uint256",
          "name": "poder",
          "type": "uint256"
        }
      ],
      "stateMutability": "view",
      "type": "function"
    },
    {
      "inputs": [
        {
          "internalType": "uint256",
          "name": "",
          "type": "uint256"
        }
      ],
      "name": "precoDeVenda",
      "outputs": [
        {
          "internalType": "uint256",
          "name": "",
          "type": "uint256"
        }
      ],
      "stateMutability": "view",
      "type": "function"
    },
    {
      "inputs": [],
      "name": "renounceOwnership",
      "outputs": [],
      "stateMutability": "nonpayable",
      "type": "function"
    },
    {
      "inputs": [
        {
          "internalType": "address",
          "name": "from",
          "type": "address"
        },
        {
          "internalType": "address",
          "name": "to",
          "type": "address"
        },
        {
          "internalType": "uint256",
          "name": "tokenId",
          "type": "uint256"
        }
      ],
      "name": "safeTransferFrom",
      "outputs": [],
      "stateMutability": "nonpayable",
      "type": "function"
    },
    {
      "inputs": [
        {
          "internalType": "address",
          "name": "from",
          "type": "address"
        },
        {
          "internalType": "address",
          "name": "to",
          "type": "address"
        },
        {
          "internalType": "uint256",
          "name": "tokenId",
          "type": "uint256"
        },
        {
          "internalType": "bytes",
          "name": "data",
          "type": "bytes"
        }
      ],
      "name": "safeTransferFrom",
      "outputs": [],
      "stateMutability": "nonpayable",
      "type": "function"
    },
    {
      "inputs": [
        {
          "internalType": "address",
          "name": "operator",
          "type": "address"
        },
        {
          "internalType": "bool",
          "name": "approved",
          "type": "bool"
        }
      ],
      "name": "setApprovalForAll",
      "outputs": [],
      "stateMutability": "nonpayable",
      "type": "function"
    },
    {
      "inputs": [
        {
          "internalType": "bytes4",
          "name": "interfaceId",
          "type": "bytes4"
        }
      ],
      "name": "supportsInterface",
      "outputs": [
        {
          "internalType": "bool",
          "name": "",
          "type": "bool"
        }
      ],
      "stateMutability": "view",
      "type": "function"
    },
    {
      "inputs": [],
      "name": "symbol",
      "outputs": [
        {
          "internalType": "string",
          "name": "",
          "type": "string"
        }
      ],
      "stateMutability": "view",
      "type": "function"
    },
    {
      "inputs": [
        {
          "internalType": "uint256",
          "name": "tokenId",
          "type": "uint256"
        }
      ],
      "name": "tokenURI",
      "outputs": [
        {
          "internalType": "string",
          "name": "",
          "type": "string"
        }
      ],
      "stateMutability": "view",
      "type": "function"
    },
    {
      "inputs": [
        {
          "internalType": "address",
          "name": "from",
          "type": "address"
        },
        {
          "internalType": "address",
          "name": "to",
          "type": "address"
        },
        {
          "internalType": "uint256",
          "name": "tokenId",
          "type": "uint256"
        }
      ],
      "name": "transferFrom",
      "outputs": [],
      "stateMutability": "nonpayable",
      "type": "function"
    },
    {
      "inputs": [
        {
          "internalType": "address",
          "name": "newOwner",
          "type": "address"
        }
      ],
      "name": "transferOwnership",
      "outputs": [],
      "stateMutability": "nonpayable",
      "type": "function"
    },
    {
      "inputs": [
        {
          "internalType": "address",
          "name": "para",
          "type": "address"
        },
        {
          "internalType": "uint256",
          "name": "tokenId",
          "type": "uint256"
        }
      ],
      "name": "transferirPersonagem",
      "outputs": [],
      "stateMutability": "nonpayable",
      "type": "function"
    },
    {
      "inputs": [
        {
          "internalType": "uint256",
          "name": "tokenId",
          "type": "uint256"
        },
        {
          "internalType": "uint256",
          "name": "preco",
          "type": "uint256"
        }
      ],
      "name": "venderPersonagem",
      "outputs": [],
      "stateMutability": "nonpayable",
      "type": "function"
    }
  ],
  "bytecode": "0x6080604052600060085534801561001557600080fd5b50336040518060400160405280601081526020017f506572736f6e6167656d4d4d4f525047000000000000000000000000000000008152506040518060400160405280600381526020017f504d4d000000000000000000000000000000000000000000000000000000000081525081600090816100929190610442565b5080600190816100a29190610442565b505050600073ffffffffffffffffffffffffffffffffffffffff168173ffffffffffffffffffffffffffffffffffffffff16036101175760006040517f1e4fbdf700000000000000000000000000000000000000000000000000000000815260040161010e9190610555565b60405180910390fd5b6101268161012c60201b60201c565b50610570565b6000600760009054906101000a900473ffffffffffffffffffffffffffffffffffffffff16905081600760006101000a81548173ffffffffffffffffffffffffffffffffffffffff021916908373ffffffffffffffffffffffffffffffffffffffff1602179055508173ffffffffffffffffffffffffffffffffffffffff168173ffffffffffffffffffffffffffffffffffffffff167f8be0079c531659141344cd1fd0a4f28419497f9722a3daafe3b4186f6b6457e060405160405180910390a35050565b600081519050919050565b7f4e487b7100000000000000000000000000000000000000000000000000000000600052604160045260246000fd5b7f4e487b7100000000000000000000000000000000000000000000000000000000600052602260045260246000fd5b6000600282049050600182168061027357607f821691505b6020821081036102865761028561022c565b5b50919050565b60008190508160005260206000209050919050565b60006020601f8301049050919050565b600082821b905092915050565b6000600883026102ee7fffffffffffffffffffffffffffffffffffffffffffffffffffffffffffffffff826102b1565b6102f886836102b1565b95508019841693508086168417925050509392505050565b6000819050919050565b6000819050919050565b600061033f61033a61033584610310565b61031a565b610310565b9050919050565b6000819050919050565b61035983610324565b61036d61036582610346565b8484546102be565b825550505050565b600090565b610382610375565b61038d818484610350565b505050565b5b818110156103b1576103a660008261037a565b600181019050610393565b5050565b601f8211156103f6576103c78161028c565b6103d0846102a1565b810160208510156103df578190505b6103f36103eb856102a1565b830182610392565b50505b505050565b600082821c905092915050565b6000610419600019846008026103fb565b1980831691505092915050565b60006104328383610408565b9150826002028217905092915050565b61044b826101f2565b67ffffffffffffffff811115610464576104636101fd565b5b61046e825461025b565b6104798282856103b5565b600060209050601f8311600181146104ac576000841561049a578287015190505b6104a48582610426565b86555061050c565b601f1984166104ba8661028c565b60005b828110156104e2578489015182556001820191506020850194506020810190506104bd565b868310156104ff57848901516104fb601f891682610408565b8355505b6001600288020188555050505b505050505050565b600073ffffffffffffffffffffffffffffffffffffffff82169050919050565b600061053f82610514565b9050919050565b61054f81610534565b82525050565b600060208201905061056a6000830184610546565b92915050565b6138588061057f6000396000f3fe6080604052600436106101665760003560e01c8063715018a6116100d1578063a22cb4651161008a578063dc3a7b5411610064578063dc3a7b541461053f578063e1dd935c14610568578063e985e9c5146105a5578063f2fde38b146105e257610166565b8063a22cb465146104b0578063b88d4fde146104d9578063c87b56dd1461050257610166565b8063715018a6146103b257806375794a3c146103c95780638da5cb5b146103f457806395d89b411461041f578063998e5fb81461044a578063a13f59831461048757610166565b80633f86e21f116101235780633f86e21f146102a157806342842e0e146102bd5780636352211e146102e6578063648a3104146103235780636bb54d0b1461034c57806370a082311461037557610166565b806301ffc9a71461016b57806306fdde03146101a8578063081812fc146101d3578063095ea7b31461021057806314d219501461023957806323b872dd14610278575b600080fd5b34801561017757600080fd5b50610192600480360381019061018d91906126b8565b61060b565b60405161019f9190612700565b60405180910390f35b3480156101b457600080fd5b506101bd61066c565b6040516101ca91906127ab565b60405180910390f35b3480156101df57600080fd5b506101fa60048036038101906101f59190612803565b6106fe565b6040516102079190612871565b60405180910390f35b34801561021c57600080fd5b50610237600480360381019061023291906128b8565b61071a565b005b34801561024557600080fd5b50610260600480360381019061025b9190612803565b610730565b60405161026f93929190612907565b60405180910390f35b34801561028457600080fd5b5061029f600480360381019061029a9190612945565b6107e2565b005b6102bb60048036038101906102b69190612803565b6108e4565b005b3480156102c957600080fd5b506102e460048036038101906102df9190612945565b610ace565b005b3480156102f257600080fd5b5061030d60048036038101906103089190612803565b610aee565b60405161031a9190612871565b60405180910390f35b34801561032f57600080fd5b5061034a60048036038101906103459190612998565b610b00565b005b34801561035857600080fd5b50610373600480360381019061036e9190612998565b610c39565b005b34801561038157600080fd5b5061039c600480360381019061039791906129d8565b610d72565b6040516103a99190612a05565b60405180910390f35b3480156103be57600080fd5b506103c7610e2c565b005b3480156103d557600080fd5b506103de610e40565b6040516103eb9190612a05565b60405180910390f35b34801561040057600080fd5b50610409610e46565b6040516104169190612871565b60405180910390f35b34801561042b57600080fd5b50610434610e70565b60405161044191906127ab565b60405180910390f35b34801561045657600080fd5b50610471600480360381019061046c9190612803565b610f02565b60405161047e9190612a05565b60405180910390f35b34801561049357600080fd5b506104ae60048036038101906104a991906128b8565b610f1a565b005b3480156104bc57600080fd5b506104d760048036038101906104d29190612a4c565b6110eb565b005b3480156104e557600080fd5b5061050060048036038101906104fb9190612bc1565b611101565b005b34801561050e57600080fd5b5061052960048036038101906105249190612803565b611126565b60405161053691906127ab565b60405180910390f35b34801561054b57600080fd5b5061056660048036038101906105619190612ce5565b611239565b005b34801561057457600080fd5b5061058f600480360381019061058a9190612803565b611334565b60405161059c9190612700565b60405180910390f35b3480156105b157600080fd5b506105cc60048036038101906105c79190612d84565b611354565b6040516105d99190612700565b60405180910390f35b3480156105ee57600080fd5b50610609600480360381019061060491906129d8565b6113e8565b005b6000634906490660e01b7bffffffffffffffffffffffffffffffffffffffffffffffffffffffff1916827bffffffffffffffffffffffffffffffffffffffffffffffffffffffff1916148061066557506106648261146e565b5b9050919050565b60606000805461067b90612df3565b80601f01602080910402602001604051908101604052809291908181526020018280546106a790612df3565b80156106f45780601f106106c9576101008083540402835291602001916106f4565b820191906000526020600020905b8154815290600101906020018083116106d757829003601f168201915b5050505050905090565b600061070982611550565b50610713826115d8565b9050919050565b61072c8282610727611615565b61161d565b5050565b600b60205280600052604060002060009150905080600001805461075390612df3565b80601f016020809104026020016040519081016040528092919081815260200182805461077f90612df3565b80156107cc5780601f106107a1576101008083540402835291602001916107cc565b820191906000526020600020905b8154815290600101906020018083116107af57829003601f168201915b5050505050908060010154908060020154905083565b600073ffffffffffffffffffffffffffffffffffffffff168273ffffffffffffffffffffffffffffffffffffffff16036108545760006040517f64a0ae9200000000000000000000000000000000000000000000000000000000815260040161084b9190612871565b60405180910390fd5b60006108688383610863611615565b61162f565b90508373ffffffffffffffffffffffffffffffffffffffff168173ffffffffffffffffffffffffffffffffffffffff16146108de578382826040517f64283d7b0000000000000000000000000000000000000000000000000000000081526004016108d593929190612e24565b60405180910390fd5b50505050565b600a600082815260200190815260200160002060009054906101000a900460ff16610944576040517f08c379a000000000000000000000000000000000000000000000000000000000815260040161093b90612ea7565b60405180910390fd5b60096000828152602001908152602001600020543414610999576040517f08c379a000000000000000000000000000000000000000000000000000000000815260040161099090612f13565b60405180910390fd5b60006109a482610aee565b90503373ffffffffffffffffffffffffffffffffffffffff168173ffffffffffffffffffffffffffffffffffffffff1603610a14576040517f08c379a0000000000000000000000000000000000000000000000000000000008152600401610a0b90612fa5565b60405180910390fd5b610a1f813384611849565b8073ffffffffffffffffffffffffffffffffffffffff166108fc349081150290604051600060405180830381858888f19350505050158015610a65573d6000803e3d6000fd5b506000600a600084815260200190815260200160002060006101000a81548160ff021916908315150217905550817f098fb36f15380cb7e4647f20d70afaa8360de397bd4b8b2816d706905e2e3d8b33604051610ac29190612871565b60405180910390a25050565b610ae983838360405180602001604052806000815250611101565b505050565b6000610af982611550565b9050919050565b3373ffffffffffffffffffffffffffffffffffffffff16610b2083610aee565b73ffffffffffffffffffffffffffffffffffffffff1614610b76576040517f08c379a0000000000000000000000000000000000000000000000000000000008152600401610b6d90613037565b60405180910390fd5b60008111610bb9576040517f08c379a0000000000000000000000000000000000000000000000000000000008152600401610bb0906130c9565b60405180910390fd5b8060096000848152602001908152602001600020819055506001600a600084815260200190815260200160002060006101000a81548160ff021916908315150217905550817f6be1c47eb0f57df620fe7299b4d405452d40830fd6f89798377a53c2e16cc50082604051610c2d9190612a05565b60405180910390a25050565b3373ffffffffffffffffffffffffffffffffffffffff16610c5983610aee565b73ffffffffffffffffffffffffffffffffffffffff1614610caf576040517f08c379a0000000000000000000000000000000000000000000000000000000008152600401610ca690613135565b60405180910390fd5b60008111610cf2576040517f08c379a0000000000000000000000000000000000000000000000000000000008152600401610ce9906131a1565b60405180910390fd5b8060096000848152602001908152602001600020819055506001600a600084815260200190815260200160002060006101000a81548160ff021916908315150217905550817f309d0b4ab09b74eb59a186c85a6d888f1972b56adc84d779e73cf24930a1520782604051610d669190612a05565b60405180910390a25050565b60008073ffffffffffffffffffffffffffffffffffffffff168273ffffffffffffffffffffffffffffffffffffffff1603610de55760006040517f89c62b64000000000000000000000000000000000000000000000000000000008152600401610ddc9190612871565b60405180910390fd5b600360008373ffffffffffffffffffffffffffffffffffffffff1673ffffffffffffffffffffffffffffffffffffffff168152602001908152602001600020549050919050565b610e346119b6565b610e3e6000611a3d565b565b60085481565b6000600760009054906101000a900473ffffffffffffffffffffffffffffffffffffffff16905090565b606060018054610e7f90612df3565b80601f0160208091040260200160405190810160405280929190818152602001828054610eab90612df3565b8015610ef85780601f10610ecd57610100808354040283529160200191610ef8565b820191906000526020600020905b815481529060010190602001808311610edb57829003601f168201915b5050505050905090565b60096020528060005260406000206000915090505481565b3373ffffffffffffffffffffffffffffffffffffffff16610f3a82610aee565b73ffffffffffffffffffffffffffffffffffffffff1614610f90576040517f08c379a0000000000000000000000000000000000000000000000000000000008152600401610f879061320d565b60405180910390fd5b600073ffffffffffffffffffffffffffffffffffffffff168273ffffffffffffffffffffffffffffffffffffffff1603610fff576040517f08c379a0000000000000000000000000000000000000000000000000000000008152600401610ff690613279565b60405180910390fd5b61100881610aee565b73ffffffffffffffffffffffffffffffffffffffff168273ffffffffffffffffffffffffffffffffffffffff1603611075576040517f08c379a000000000000000000000000000000000000000000000000000000000815260040161106c9061330b565b60405180910390fd5b611080338383611849565b6000600a600083815260200190815260200160002060006101000a81548160ff0219169083151502179055507f5b28b13a42666ae801b9594f6e1b948dba047450b16d5b92280a02b8d0640ac03383836040516110df9392919061332b565b60405180910390a15050565b6110fd6110f6611615565b8383611b03565b5050565b61110c8484846107e2565b611120611117611615565b85858585611c72565b50505050565b606061113182611550565b50600060066000848152602001908152602001600020805461115290612df3565b80601f016020809104026020016040519081016040528092919081815260200182805461117e90612df3565b80156111cb5780601f106111a0576101008083540402835291602001916111cb565b820191906000526020600020905b8154815290600101906020018083116111ae57829003601f168201915b5050505050905060006111dc611e23565b905060008151036111f1578192505050611234565b60008251111561122657808260405160200161120e92919061339e565b60405160208183030381529060405292505050611234565b61122f84611e3a565b925050505b919050565b6000600854905061124a3382611ea3565b6112548186611ec1565b604051806060016040528085815260200184815260200183815250600b60008381526020019081526020016000206000820151816000019081611297919061356e565b5060208201518160010155604082015181600201559050506000600a600083815260200190815260200160002060006101000a81548160ff021916908315150217905550807f986e28454a18656987c9e05229823e2cfc9bc9f51f951a95080bddebd73cfb1e338760405161130d929190613640565b60405180910390a2600860008154809291906113289061369f565b91905055505050505050565b600a6020528060005260406000206000915054906101000a900460ff1681565b6000600560008473ffffffffffffffffffffffffffffffffffffffff1673ffffffffffffffffffffffffffffffffffffffff16815260200190815260200160002060008373ffffffffffffffffffffffffffffffffffffffff1673ffffffffffffffffffffffffffffffffffffffff16815260200190815260200160002060009054906101000a900460ff16905092915050565b6113f06119b6565b600073ffffffffffffffffffffffffffffffffffffffff168173ffffffffffffffffffffffffffffffffffffffff16036114625760006040517f1e4fbdf70000000000000000000000000000000000000000000000000000000081526004016114599190612871565b60405180910390fd5b61146b81611a3d565b50565b60007f80ac58cd000000000000000000000000000000000000000000000000000000007bffffffffffffffffffffffffffffffffffffffffffffffffffffffff1916827bffffffffffffffffffffffffffffffffffffffffffffffffffffffff1916148061153957507f5b5e139f000000000000000000000000000000000000000000000000000000007bffffffffffffffffffffffffffffffffffffffffffffffffffffffff1916827bffffffffffffffffffffffffffffffffffffffffffffffffffffffff1916145b80611549575061154882611f1d565b5b9050919050565b60008061155c83611f87565b9050600073ffffffffffffffffffffffffffffffffffffffff168173ffffffffffffffffffffffffffffffffffffffff16036115cf57826040517f7e2732890000000000000000000000000000000000000000000000000000000081526004016115c69190612a05565b60405180910390fd5b80915050919050565b60006004600083815260200190815260200160002060009054906101000a900473ffffffffffffffffffffffffffffffffffffffff169050919050565b600033905090565b61162a8383836001611fc4565b505050565b60008061163b84611f87565b9050600073ffffffffffffffffffffffffffffffffffffffff168373ffffffffffffffffffffffffffffffffffffffff161461167d5761167c818486612189565b5b600073ffffffffffffffffffffffffffffffffffffffff168173ffffffffffffffffffffffffffffffffffffffff161461170e576116bf600085600080611fc4565b6001600360008373ffffffffffffffffffffffffffffffffffffffff1673ffffffffffffffffffffffffffffffffffffffff168152602001908152602001600020600082825403925050819055505b600073ffffffffffffffffffffffffffffffffffffffff168573ffffffffffffffffffffffffffffffffffffffff1614611791576001600360008773ffffffffffffffffffffffffffffffffffffffff1673ffffffffffffffffffffffffffffffffffffffff168152602001908152602001600020600082825401925050819055505b846002600086815260200190815260200160002060006101000a81548173ffffffffffffffffffffffffffffffffffffffff021916908373ffffffffffffffffffffffffffffffffffffffff160217905550838573ffffffffffffffffffffffffffffffffffffffff168273ffffffffffffffffffffffffffffffffffffffff167fddf252ad1be2c89b69c2b068fc378daa952ba7f163c4a11628f55a4df523b3ef60405160405180910390a4809150509392505050565b600073ffffffffffffffffffffffffffffffffffffffff168273ffffffffffffffffffffffffffffffffffffffff16036118bb5760006040517f64a0ae920000000000000000000000000000000000000000000000000000000081526004016118b29190612871565b60405180910390fd5b60006118c98383600061162f565b9050600073ffffffffffffffffffffffffffffffffffffffff168173ffffffffffffffffffffffffffffffffffffffff160361193c57816040517f7e2732890000000000000000000000000000000000000000000000000000000081526004016119339190612a05565b60405180910390fd5b8373ffffffffffffffffffffffffffffffffffffffff168173ffffffffffffffffffffffffffffffffffffffff16146119b0578382826040517f64283d7b0000000000000000000000000000000000000000000000000000000081526004016119a793929190612e24565b60405180910390fd5b50505050565b6119be611615565b73ffffffffffffffffffffffffffffffffffffffff166119dc610e46565b73ffffffffffffffffffffffffffffffffffffffff1614611a3b576119ff611615565b6040517f118cdaa7000000000000000000000000000000000000000000000000000000008152600401611a329190612871565b60405180910390fd5b565b6000600760009054906101000a900473ffffffffffffffffffffffffffffffffffffffff16905081600760006101000a81548173ffffffffffffffffffffffffffffffffffffffff021916908373ffffffffffffffffffffffffffffffffffffffff1602179055508173ffffffffffffffffffffffffffffffffffffffff168173ffffffffffffffffffffffffffffffffffffffff167f8be0079c531659141344cd1fd0a4f28419497f9722a3daafe3b4186f6b6457e060405160405180910390a35050565b600073ffffffffffffffffffffffffffffffffffffffff168273ffffffffffffffffffffffffffffffffffffffff1603611b7457816040517f5b08ba18000000000000000000000000000000000000000000000000000000008152600401611b6b9190612871565b60405180910390fd5b80600560008573ffffffffffffffffffffffffffffffffffffffff1673ffffffffffffffffffffffffffffffffffffffff16815260200190815260200160002060008473ffffffffffffffffffffffffffffffffffffffff1673ffffffffffffffffffffffffffffffffffffffff16815260200190815260200160002060006101000a81548160ff0219169083151502179055508173ffffffffffffffffffffffffffffffffffffffff168373ffffffffffffffffffffffffffffffffffffffff167f17307eab39ab6107e8899845ad3d59bd9653f200f220920489ca2b5937696c3183604051611c659190612700565b60405180910390a3505050565b60008373ffffffffffffffffffffffffffffffffffffffff163b1115611e1c578273ffffffffffffffffffffffffffffffffffffffff1663150b7a02868685856040518563ffffffff1660e01b8152600401611cd1949392919061373c565b6020604051808303816000875af1925050508015611d0d57506040513d601f19601f82011682018060405250810190611d0a919061379d565b60015b611d91573d8060008114611d3d576040519150601f19603f3d011682016040523d82523d6000602084013e611d42565b606091505b506000815103611d8957836040517f64a0ae92000000000000000000000000000000000000000000000000000000008152600401611d809190612871565b60405180910390fd5b805181602001fd5b63150b7a0260e01b7bffffffffffffffffffffffffffffffffffffffffffffffffffffffff1916817bffffffffffffffffffffffffffffffffffffffffffffffffffffffff191614611e1a57836040517f64a0ae92000000000000000000000000000000000000000000000000000000008152600401611e119190612871565b60405180910390fd5b505b5050505050565b606060405180602001604052806000815250905090565b6060611e4582611550565b506000611e50611e23565b90506000815111611e705760405180602001604052806000815250611e9b565b80611e7a8461224d565b604051602001611e8b92919061339e565b6040516020818303038152906040525b915050919050565b611ebd82826040518060200160405280600081525061231b565b5050565b80600660008481526020019081526020016000209081611ee1919061356e565b507ff8e1a15aba9398e019f0b49df1a4fde98ee17ae345cb5f6b5e2c27f5033e8ce782604051611f119190612a05565b60405180910390a15050565b60007f01ffc9a7000000000000000000000000000000000000000000000000000000007bffffffffffffffffffffffffffffffffffffffffffffffffffffffff1916827bffffffffffffffffffffffffffffffffffffffffffffffffffffffff1916149050919050565b60006002600083815260200190815260200160002060009054906101000a900473ffffffffffffffffffffffffffffffffffffffff169050919050565b8080611ffd5750600073ffffffffffffffffffffffffffffffffffffffff168273ffffffffffffffffffffffffffffffffffffffff1614155b1561213157600061200d84611550565b9050600073ffffffffffffffffffffffffffffffffffffffff168373ffffffffffffffffffffffffffffffffffffffff161415801561207857508273ffffffffffffffffffffffffffffffffffffffff168173ffffffffffffffffffffffffffffffffffffffff1614155b801561208b57506120898184611354565b155b156120cd57826040517fa9fbf51f0000000000000000000000000000000000000000000000000000000081526004016120c49190612871565b60405180910390fd5b811561212f57838573ffffffffffffffffffffffffffffffffffffffff168273ffffffffffffffffffffffffffffffffffffffff167f8c5be1e5ebec7d5bd14f71427d1e84f3dd0314c0f7b2291e5b200ac8c7c3b92560405160405180910390a45b505b836004600085815260200190815260200160002060006101000a81548173ffffffffffffffffffffffffffffffffffffffff021916908373ffffffffffffffffffffffffffffffffffffffff16021790555050505050565b61219483838361233f565b61224857600073ffffffffffffffffffffffffffffffffffffffff168373ffffffffffffffffffffffffffffffffffffffff160361220957806040517f7e2732890000000000000000000000000000000000000000000000000000000081526004016122009190612a05565b60405180910390fd5b81816040517f177e802f00000000000000000000000000000000000000000000000000000000815260040161223f9291906137ca565b60405180910390fd5b505050565b60606000600161225c84612400565b01905060008167ffffffffffffffff81111561227b5761227a612a96565b5b6040519080825280601f01601f1916602001820160405280156122ad5781602001600182028036833780820191505090505b509050600082602001820190505b600115612310578080600190039150507f3031323334353637383961626364656600000000000000000000000000000000600a86061a8153600a8581612304576123036137f3565b5b049450600085036122bb575b819350505050919050565b6123258383612553565b61233a612330611615565b6000858585611c72565b505050565b60008073ffffffffffffffffffffffffffffffffffffffff168373ffffffffffffffffffffffffffffffffffffffff16141580156123f757508273ffffffffffffffffffffffffffffffffffffffff168473ffffffffffffffffffffffffffffffffffffffff1614806123b857506123b78484611354565b5b806123f657508273ffffffffffffffffffffffffffffffffffffffff166123de836115d8565b73ffffffffffffffffffffffffffffffffffffffff16145b5b90509392505050565b600080600090507a184f03e93ff9f4daa797ed6e38ed64bf6a1f010000000000000000831061245e577a184f03e93ff9f4daa797ed6e38ed64bf6a1f0100000000000000008381612454576124536137f3565b5b0492506040810190505b6d04ee2d6d415b85acef8100000000831061249b576d04ee2d6d415b85acef81000000008381612491576124906137f3565b5b0492506020810190505b662386f26fc1000083106124ca57662386f26fc1000083816124c0576124bf6137f3565b5b0492506010810190505b6305f5e10083106124f3576305f5e10083816124e9576124e86137f3565b5b0492506008810190505b612710831061251857612710838161250e5761250d6137f3565b5b0492506004810190505b6064831061253b5760648381612531576125306137f3565b5b0492506002810190505b600a831061254a576001810190505b80915050919050565b600073ffffffffffffffffffffffffffffffffffffffff168273ffffffffffffffffffffffffffffffffffffffff16036125c55760006040517f64a0ae920000000000000000000000000000000000000000000000000000000081526004016125bc9190612871565b60405180910390fd5b60006125d38383600061162f565b9050600073ffffffffffffffffffffffffffffffffffffffff168173ffffffffffffffffffffffffffffffffffffffff16146126475760006040517f73c6ac6e00000000000000000000000000000000000000000000000000000000815260040161263e9190612871565b60405180910390fd5b505050565b6000604051905090565b600080fd5b600080fd5b60007fffffffff0000000000000000000000000000000000000000000000000000000082169050919050565b61269581612660565b81146126a057600080fd5b50565b6000813590506126b28161268c565b92915050565b6000602082840312156126ce576126cd612656565b5b60006126dc848285016126a3565b91505092915050565b60008115159050919050565b6126fa816126e5565b82525050565b600060208201905061271560008301846126f1565b92915050565b600081519050919050565b600082825260208201905092915050565b60005b8381101561275557808201518184015260208101905061273a565b60008484015250505050565b6000601f19601f8301169050919050565b600061277d8261271b565b6127878185612726565b9350612797818560208601612737565b6127a081612761565b840191505092915050565b600060208201905081810360008301526127c58184612772565b905092915050565b6000819050919050565b6127e0816127cd565b81146127eb57600080fd5b50565b6000813590506127fd816127d7565b92915050565b60006020828403121561281957612818612656565b5b6000612827848285016127ee565b91505092915050565b600073ffffffffffffffffffffffffffffffffffffffff82169050919050565b600061285b82612830565b9050919050565b61286b81612850565b82525050565b60006020820190506128866000830184612862565b92915050565b61289581612850565b81146128a057600080fd5b50565b6000813590506128b28161288c565b92915050565b600080604083850312156128cf576128ce612656565b5b60006128dd858286016128a3565b92505060206128ee858286016127ee565b9150509250929050565b612901816127cd565b82525050565b600060608201905081810360008301526129218186612772565b905061293060208301856128f8565b61293d60408301846128f8565b949350505050565b60008060006060848603121561295e5761295d612656565b5b600061296c868287016128a3565b935050602061297d868287016128a3565b925050604061298e868287016127ee565b9150509250925092565b600080604083850312156129af576129ae612656565b5b60006129bd858286016127ee565b92505060206129ce858286016127ee565b9150509250929050565b6000602082840312156129ee576129ed612656565b5b60006129fc848285016128a3565b91505092915050565b6000602082019050612a1a60008301846128f8565b92915050565b612a29816126e5565b8114612a3457600080fd5b50565b600081359050612a4681612a20565b92915050565b60008060408385031215612a6357612a62612656565b5b6000612a71858286016128a3565b9250506020612a8285828601612a37565b9150509250929050565b600080fd5b600080fd5b7f4e487b7100000000000000000000000000000000000000000000000000000000600052604160045260246000fd5b612ace82612761565b810181811067ffffffffffffffff82111715612aed57612aec612a96565b5b80604052505050565b6000612b0061264c565b9050612b0c8282612ac5565b919050565b600067ffffffffffffffff821115612b2c57612b2b612a96565b5b612b3582612761565b9050602081019050919050565b82818337600083830152505050565b6000612b64612b5f84612b11565b612af6565b905082815260208101848484011115612b8057612b7f612a91565b5b612b8b848285612b42565b509392505050565b600082601f830112612ba857612ba7612a8c565b5b8135612bb8848260208601612b51565b91505092915050565b60008060008060808587031215612bdb57612bda612656565b5b6000612be9878288016128a3565b9450506020612bfa878288016128a3565b9350506040612c0b878288016127ee565b925050606085013567ffffffffffffffff811115612c2c57612c2b61265b565b5b612c3887828801612b93565b91505092959194509250565b600067ffffffffffffffff821115612c5f57612c5e612a96565b5b612c6882612761565b9050602081019050919050565b6000612c88612c8384612c44565b612af6565b905082815260208101848484011115612ca457612ca3612a91565b5b612caf848285612b42565b509392505050565b600082601f830112612ccc57612ccb612a8c565b5b8135612cdc848260208601612c75565b91505092915050565b60008060008060808587031215612cff57612cfe612656565b5b600085013567ffffffffffffffff811115612d1d57612d1c61265b565b5b612d2987828801612cb7565b945050602085013567ffffffffffffffff811115612d4a57612d4961265b565b5b612d5687828801612cb7565b9350506040612d67878288016127ee565b9250506060612d78878288016127ee565b91505092959194509250565b60008060408385031215612d9b57612d9a612656565b5b6000612da9858286016128a3565b9250506020612dba858286016128a3565b9150509250929050565b7f4e487b7100000000000000000000000000000000000000000000000000000000600052602260045260246000fd5b60006002820490506001821680612e0b57607f821691505b602082108103612e1e57612e1d612dc4565b5b50919050565b6000606082019050612e396000830186612862565b612e4660208301856128f8565b612e536040830184612862565b949350505050565b7f506572736f6e6167656d206e616f206573746120612076656e64610000000000600082015250565b6000612e91601b83612726565b9150612e9c82612e5b565b602082019050919050565b60006020820190508181036000830152612ec081612e84565b9050919050565b7f56616c6f7220696e636f727265746f0000000000000000000000000000000000600082015250565b6000612efd600f83612726565b9150612f0882612ec7565b602082019050919050565b60006020820190508181036000830152612f2c81612ef0565b9050919050565b7f566f6365206a612065206f20646f6e6f20646573746520706572736f6e61676560008201527f6d2e000000000000000000000000000000000000000000000000000000000000602082015250565b6000612f8f602283612726565b9150612f9a82612f33565b604082019050919050565b60006020820190508181036000830152612fbe81612f82565b9050919050565b7f566f6365206e616f206568206f20646f6e6f20646573746520706572736f6e6160008201527f67656d2e00000000000000000000000000000000000000000000000000000000602082015250565b6000613021602483612726565b915061302c82612fc5565b604082019050919050565b6000602082019050818103600083015261305081613014565b9050919050565b7f4f206e6f766f20707265636f206465766520736572206d61696f72207175652060008201527f7a65726f2e000000000000000000000000000000000000000000000000000000602082015250565b60006130b3602583612726565b91506130be82613057565b604082019050919050565b600060208201905081810360008301526130e2816130a6565b9050919050565b7f566f6365206e616f206568206f20646f6e6f0000000000000000000000000000600082015250565b600061311f601283612726565b915061312a826130e9565b602082019050919050565b6000602082019050818103600083015261314e81613112565b9050919050565b7f4f20707265636f206465766520736572206d61696f7220717565207a65726f2e600082015250565b600061318b602083612726565b915061319682613155565b602082019050919050565b600060208201905081810360008301526131ba8161317e565b9050919050565b7f4170656e6173206f20646f6e6f20706f6465207472616e736665726972000000600082015250565b60006131f7601d83612726565b9150613202826131c1565b602082019050919050565b60006020820190508181036000830152613226816131ea565b9050919050565b7f456e64657265636f20696e76616c69646f000000000000000000000000000000600082015250565b6000613263601183612726565b915061326e8261322d565b602082019050919050565b6000602082019050818103600083015261329281613256565b9050919050565b7f4e616f20706f6465207472616e7366657269722070617261207369206d65736d60008201527f6f2e000000000000000000000000000000000000000000000000000000000000602082015250565b60006132f5602283612726565b915061330082613299565b604082019050919050565b60006020820190508181036000830152613324816132e8565b9050919050565b60006060820190506133406000830186612862565b61334d6020830185612862565b61335a60408301846128f8565b949350505050565b600081905092915050565b60006133788261271b565b6133828185613362565b9350613392818560208601612737565b80840191505092915050565b60006133aa828561336d565b91506133b6828461336d565b91508190509392505050565b60008190508160005260206000209050919050565b60006020601f8301049050919050565b600082821b905092915050565b6000600883026134247fffffffffffffffffffffffffffffffffffffffffffffffffffffffffffffffff826133e7565b61342e86836133e7565b95508019841693508086168417925050509392505050565b6000819050919050565b600061346b613466613461846127cd565b613446565b6127cd565b9050919050565b6000819050919050565b61348583613450565b61349961349182613472565b8484546133f4565b825550505050565b600090565b6134ae6134a1565b6134b981848461347c565b505050565b5b818110156134dd576134d26000826134a6565b6001810190506134bf565b5050565b601f821115613522576134f3816133c2565b6134fc846133d7565b8101602085101561350b578190505b61351f613517856133d7565b8301826134be565b50505b505050565b600082821c905092915050565b600061354560001984600802613527565b1980831691505092915050565b600061355e8383613534565b9150826002028217905092915050565b6135778261271b565b67ffffffffffffffff8111156135905761358f612a96565b5b61359a8254612df3565b6135a58282856134e1565b600060209050601f8311600181146135d857600084156135c6578287015190505b6135d08582613552565b865550613638565b601f1984166135e6866133c2565b60005b8281101561360e578489015182556001820191506020850194506020810190506135e9565b8683101561362b5784890151613627601f891682613534565b8355505b6001600288020188555050505b505050505050565b60006040820190506136556000830185612862565b81810360208301526136678184612772565b90509392505050565b7f4e487b7100000000000000000000000000000000000000000000000000000000600052601160045260246000fd5b60006136aa826127cd565b91507fffffffffffffffffffffffffffffffffffffffffffffffffffffffffffffffff82036136dc576136db613670565b5b600182019050919050565b600081519050919050565b600082825260208201905092915050565b600061370e826136e7565b61371881856136f2565b9350613728818560208601612737565b61373181612761565b840191505092915050565b60006080820190506137516000830187612862565b61375e6020830186612862565b61376b60408301856128f8565b818103606083015261377d8184613703565b905095945050505050565b6000815190506137978161268c565b92915050565b6000602082840312156137b3576137b2612656565b5b60006137c184828501613788565b91505092915050565b60006040820190506137df6000830185612862565b6137ec60208301846128f8565b9392505050565b7f4e487b7100000000000000000000000000000000000000000000000000000000600052601260045260246000fdfea2646970667358221220349d72026f50b549e95fd912fe1ae2d5b68a464ee1842a23e70994b95f47776464736f6c634300081c0033",
  "linkReferences": {},
  "deployedLinkReferences": {}
}